:020000040800F2
:10000000D8B70020590200082D290008A1230008B4
:10001000ED24000821070008A542000800000000A8
:10002000000000000000000000000000A101000826
:100030007317000800000000F5010008CD38000823
:1000400073020008730200087302000873020008BC
:1000500073020008730200087302000873020008AC
:10006000730200087302000873020008730200089C
:10007000730200087302000873020008730200088C
:10008000730200087302000873020008730200087C
:100090008907000873020008730200087302000851
:1000A000730200087302000873020008730200085C
:1000B000730200087302000873020008730200084C
:1000C000730200087302000873020008730200083C
:1000D0007302000873020008813C000873020008E4
:1000E000730200087302000873020008730200081C
:1000F000730200087302000873020008730200080C
:1001000073020008730200087302000873020008FB
:10011000730200087302000873020008F93900082E
:1001200073020008730200087302000873020008DB
:1001300073020008730200087302000873020008CB
:1001400073020008410900087302000873020008E6
:10015000730200087302000873020008893D00085A
:10016000730200087302000873020008730200089B
:10017000730200087302000873020008730200088B
:100180007302000873020008DFF810D000F0DCF8FA
:1001900000480047D5480008AFF30080D8B70020DA
:1001A0002A4B19680868B0E8F04F80F30988BFF35C
:1001B0006F8F4FF0000080F311887047000000003F
:1001C00006480068006880F3088862B661B6BFF32D
:1001D0004F8FBFF36F8F00DF00BF00BF08ED00E05F
:1001E000DFF80C00016841F470010160704700BF46
:1001F00088ED00E0EFF30980BFF36F8F134B1A68AF
:100200001EF0100F08BF20ED108A20E9F04F10609B
:1002100008B44FF0500080F31188BFF34F8FBFF345
:100220006F8F06F071F94FF0000080F3118808BC61
:1002300019680868B0E8F04F1EF0100F08BFB0EC66
:10024000108A80F30988BFF36F8F70474001002048
:10025000EFF30580704700000648804706480047D6
:10026000FEE7FEE7FEE7FEE7FEE7FEE7FEE7FEE766
:10027000FEE7FEE7DD3800088901000840EA0103D7
:100280009B0703D009E008C9121F08C0042AFAD24C
:1002900003E011F8013B00F8013B521EF9D2704710
:1002A000D2B201E000F8012B491EFBD270470022B8
:1002B000F6E710B513460A4604461946FFF7F0FF65
:1002C000204610BD00F0004230F000400AD0C10DC1
:1002D00001F56071C0F3160042EA0151C2084007FF
:1002E00011437047002001467047000030B5041EDE
:1002F00071F1000404DB4FF00044404264EB010163
:10030000141E73F1000405DB1C464FF000435242FB
:1003100063EB04038B4208BF824230BD30B50B460D
:10032000014600202022012409E021FA02F59D4225
:1003300005D303FA02F5491B04FA02F52844151EF9
:10034000A2F10102F1DC30BD064C074D06E0E06889
:1003500040F0010394E8070098471034AC42F6D30C
:10036000FFF716FF2C7A00084C7A000870B58C183D
:1003700010F8015B15F0070301D110F8013B2A11B9
:1003800006D110F8012B03E010F8016B01F8016BA6
:100390005B1EF9D12B0705D40023521E0DD401F8A2
:1003A000013BFAE710F8013BCB1A921C03E013F86B
:1003B000015B01F8015B521EF9D5A142D8D30020A0
:1003C00070BD000010B50020254908702548007C4C
:1003D000022843D1244890ED000A224880ED070A04
:1003E000224890ED000A1F4880ED0A0A204890ED4F
:1003F000010A1C4880ED0D0A1E4890ED010A1948BB
:1004000080ED100A90ED120A80ED130A142005F019
:1004100069FE4021184801F02FFF8021164801F0A5
:100420002BFF1021144801F027FF4FF400611348FF
:1004300001F022FF4FF48051104801F01DFF4FF4EE
:1004400000510E4801F018FF4FF480410B4801F0B5
:1004500013FF4FF40041094801F00EFF10BD0000EA
:100460000400002020040020D0030020E803002026
:100470000004002010040020000C02400010024084
:100480001CB50121182003F013F84FF478400090B8
:1004900001208DF804008DF8070000208DF806007B
:1004A0008DF805006946054801F072FED0200090E5
:1004B0006946034801F06CFE1CBD000000100240BC
:1004C000000C024010B504468C480078022803D086
:1004D0008A48007800287DD18948007830BB022006
:1004E000864908708021874801F0C6FE4FF400510C
:1004F000854801F0C3FE4021824801F0BFFE4FF461
:10050000967005F0EFFD8148D0ED000AB0EE600A6C
:10051000204601F04BF87E48D0ED000AB0EE600AAC
:10052000204600F0F1FF642005F0DCFD74480078FF
:10053000401C7349087031E00421724801F093FEB9
:1005400038B980216F4801F099FE642005F0CAFD9A
:1005500010BD04216B4801F086FEE0B16D48007DBE
:1005600000F0100020B16B48007D00F0800048B919
:100570006848C07A01280ED16648B0F90800B0F585
:10058000DC7F08DD80215F4801F078FE4FF4967033
:1005900005F0A8FDDCE7012005F0A4FD584800782F
:1005A0000128C9D05648007802280FD15948007D4B
:1005B00000F0200050B18021524801F05DFE4FF460
:1005C000967005F08FFD00204D4908704C4800786A
:1005D000022800E083E07BD14E48007D00F020003F
:1005E000002875D14A48D0ED030AB0EE600A2046D3
:1005F00000F08AFF4548D0ED030AB0EE600A2046BD
:1006000000F0D4FF4FF4C87005F06CFD40213D4868
:1006100001F032FE40F2EE2005F064FD3E4890ED20
:10062000041AF0EE410A3D4890ED041AB0EE410A7A
:10063000204603F0C1FD4FF4FA7005F053FD802110
:10064000304801F019FE40F2EE2005F04BFD40214C
:100650002C4801F013FE4FF4967005F043FD2E4830
:1006600090ED001AF0EE410A2C4890ED001AB0EE21
:10067000410A204603F0A0FD4FF4967005F032FDCC
:100680002248D0ED010AB0EE600A204600F08EFF4D
:100690001F48D0ED010AB0EE600A204600F034FF9A
:1006A0004FF4C87005F01EFD4FF40051164801F0DC
:1006B000E3FD4FF4967005F015FD4021114801F05F
:1006C000DBFD40F2EE2005F00DFD00200B49087027
:1006D0000B480078032802DB00200949087007480E
:1006E0000078022807D00548007820B1FFF76AFE9D
:1006F00000200349087000BF2AE700000400002022
:100700005C000020000C02400010024000040020A9
:10071000100400202C090020E8030020D003002052
:1007200000BFFEE7F0B585B004460D4616461F46ED
:100730004FF40070009000208DF808008DF809003B
:1007400008208DF80A00200A8DF80B00E1B28DF820
:100750000C10290A8DF80D10E9B28DF80E10310A2F
:100760008DF80F10F1B28DF81010390A8DF81110B4
:10077000F9B28DF812106946024800F000FC05B08D
:10078000F0BD00000064004010B50221084800F0F0
:100790005BFA58B10221064800F07EF9054A0021B3
:1007A000034800F074FB034800F07CFC10BD00001F
:1007B00000640040D0090020F0B585B004460D4625
:1007C00016461F4640F2FF10009000208DF80800EA
:1007D0008DF8090008208DF80A00200A8DF80B001A
:1007E000E1B28DF80C10290A8DF80D10E9B28DF8E0
:1007F0000E10310A8DF80F10F1B28DF81010390A71
:100800008DF81110F9B28DF812106946024800F007
:10081000B6FB05B0F0BD0000006400402DE9F041DA
:100820008AB004460D4616461F46DDF84080012179
:10083000084602F03DFE0121480602F049FE012172
:10084000480602F055FE00214FF0007002F050FE05
:100850004FF4C050089002208DF8240000208DF83D
:10086000260003208DF8250001208DF8270008A917
:10087000314801F08DFC09220B212F4801F0D0FCFA
:1008800009220C212C4801F0CBFC00208DF81A0025
:1008900001208DF81B0000208DF81C0001208DF830
:1008A0001D0000208DF81E008DF81F008DF81680A9
:1008B0008DF817408DF818608DF81950ADF8147048
:1008C00005A91E4800F059FA00208DF80E008DF899
:1008D0000F0001208DF810000020ADF80400ADF8E5
:1008E0000600ADF80800ADF80A00ADF80C000120D4
:1008F0008DF8110001A800F023F9012202210F4810
:1009000000F032FA00224FF400410C4800F02CFABB
:1009100014208DF8000004208DF8010000208DF8CF
:10092000020001208DF80300684602F001F8002063
:100930000AB0BDE8F0810000000002400064004001
:1009400010B51021084800F07FF958B11021064871
:1009500000F0A2F8054A0121034800F098FA034884
:1009600000F0A6FD10BD000000680040E409002072
:100970002DE9F0418AB004460D4616461F46DDF8C3
:1009800040800121022002F093FD0121880602F03F
:100990009FFD0121880602F0ABFD00214FF0806031
:1009A00002F0A6FD6020089002208DF824000020AF
:1009B0008DF8260003208DF8250001208DF82700F2
:1009C00008A9324801F0E4FB092205212F4801F073
:1009D00027FC092206212D4801F022FC00208DF879
:1009E0001A0001208DF81B0000208DF81C0001204A
:1009F0008DF81D0000208DF81E008DF81F008DF869
:100A000016808DF817408DF818608DF81950ADF8E4
:100A1000147005A91E4800F0B0F90E208DF80E00E4
:100A200000208DF80F0001208DF810000020ADF897
:100A30000400ADF80600ADF80800ADF80A0001208A
:100A4000ADF80C008DF8110001A800F079F8012232
:100A500010210F4800F088F900224FF400410D48A2
:100A600000F082F941208DF8000003208DF801008C
:100A700000208DF8020001208DF80300684601F087
:100A800057FF00200AB0BDE8F081000000040240DA
:100A90000068004000640040B1F5007F3AD00FDCF0
:100AA000202928D006DC01291CD004291DD00829C2
:100AB00040D11DE0402921D0B1F5807F3AD126E018
:100AC000B1F5004F31D006DCB1F5806F25D0B1F51E
:100AD000006F2FD124E0B1F5803F12D0B1F5003F77
:100AE00028D111E0154A826025E00822C26022E088
:100AF0001022C2601FE0082202611CE01022026185
:100B000019E00822426016E01022426013E004223D
:100B1000426010E0042242600DE0042242600AE0DC
:100B2000002282610422426005E0002282610422E8
:100B3000426000E000BF00BF7047000001010100FB
:100B400010B50021837A012202FA03F13D4A1268AE
:100B500042F001023B4B1A603A4A1C3212688A4347
:100B6000384B1C331A60027BCAB9364A0C32126801
:100B70008A43344B0C331A604288C38842EA0343E9
:100B8000304A4032847A42F834300288838842EA1C
:100B900003432C4A4032847A02EBC4025360027B46
:100BA000012A19D1274A0C3212680A43254B0C330B
:100BB0001A604288038842EA0343224A4032847A18
:100BC00042F83430C288838842EA03431D4A4032E7
:100BD000847A02EBC4025360C27A3AB9194A121DF0
:100BE00012688A43174B1B1D1A6006E0154A121D36
:100BF00012680A43134B1B1D1A60028932B9114A4D
:100C0000143212688A430F4B14331A600289012A86
:100C100006D10C4A143212680A430A4B14331A6084
:100C2000427B012A06D1074A1C3212680A43054B4F
:100C30001C331A60034A126822F00102014B1A6049
:100C400010BD00000066004070B504460D46002649
:100C500060692840002871D0B5F5807F5CD010DC39
:100C6000082D35D006DC012D20D0022D24D0042DF6
:100C700072D127E0102D31D0202D35D0402D6BD1F1
:100C800038E0B5F5004F60D009DCB5F5007F49D0FC
:100C9000B5F5806F4CD0B5F5006F5DD14FE0B5F57F
:100CA000803F2DD0B5F5003F56D12FE0A0682D49EB
:100CB00000F020FC064651E0E068032100F01AFC39
:100CC00006464BE0E068082100F014FC064645E0CB
:100CD000E068102100F00EFC06463FE02069032189
:100CE00000F008FC064639E02069082100F002FC0B
:100CF000064633E02069102100F0FCFB06462DE09B
:100D00006068082100F0F6FB064627E060681021C5
:100D100000F0F0FB064621E0A069012100F0EAFBAB
:100D200006461BE0A069022100F0E4FB064615E040
:100D3000A069042100F0DEFB06460FE00FE0A06989
:100D4000702100F0D7FB064608E06068042100F03F
:100D5000D1FB064602E0FFE7002600BF00E00026C8
:100D6000304670BD010101001AB143690B43436174
:100D700002E043698B434361704730B5024600206F
:100D80000023146824F002041460146844F0010481
:100D9000146000E05B1C546804F001041CB94FF6B9
:100DA000FF74A342F6D1546804F001040CB900208A
:100DB0006CE08C79012C04D1146844F08004146038
:100DC00003E0146824F080041460CC79012C04D171
:100DD000146844F04004146003E0146824F04004F4
:100DE00014600C7A012C04D1146844F020041460BF
:100DF00003E0146824F0200414604C7A012C04D120
:100E0000146844F01004146003E0146824F0100423
:100E100014608C7A012C04D1146844F00804146026
:100E200003E0146824F008041460CC7A012C04D187
:100E3000146844F00404146003E0146824F004040B
:100E400014608C78A407CD7844EA05640D7944EAEF
:100E500005444D7944EA05540D886D1E2C43D46138
:100E6000146824F001041460002300E05B1C546843
:100E700004F001041CB14FF6FF74A342F6D154688C
:100E800004F001040CB1002000E0012030BD10B5D9
:100E900000F5D87303EB01131B6803F0040313720E
:100EA000137A53B900F5D87303EB01131B6840F2B2
:100EB000FF7404EA5353136009E000F5D87303EBA1
:100EC00001131B686FF0604404EAD303536000F51C
:100ED000D87303EB01131B6803F00203537200F590
:100EE000D87303EB01135B6803F00F03937200F5F3
:100EF000D87303EB01135B681B0AD37400F5D87336
:100F000003EB01139B68D37200F5D87303EB011355
:100F10009B681C0A147300F5D87303EB01139B68DC
:100F20001C0C547300F5D87303EB01139B681B0E64
:100F3000937300F5D87303EB0113DB68D37300F5EB
:100F4000D87303EB0113DB681C0A147400F5D87323
:100F500003EB0113DB681C0C547400F5D87303EB2E
:100F60000113DB681B0E937421B9C36843F020039F
:100F7000C36003E0036943F02003036110BD10B5B3
:100F800002460020936803F08063B3F1806F00D1C4
:100F900010E0936803F00063B3F1006F01D101200A
:100FA00008E0936803F08053B3F1805F01D1022021
:100FB00000E00420042874D002F5C07303EB001392
:100FC0001B6803F0010402F5C07303EB00131C60FF
:100FD0000B7A7BB94B7A0C8843EA445302F5C07410
:100FE00004EB00142468234302F5C07404EB0014DE
:100FF000236010E00B7A4C6843EAC4034C7A234325
:1010000002F5C07404EB00142468234302F5C07495
:1010100004EB001423608B7A03F00F038B7202F54C
:10102000C07303EB00135B6823F00F0402F5C07379
:1010300003EB00135C6002F5C07303EB00135B6805
:101040008C7A234302F5C07404EB001463608B7B3D
:101050001C064B7B44EA03440B7B44EA0323CC7A13
:10106000234302F5C07404EB0014A3608B7C1C06C0
:101070004B7C44EA03440B7C44EA0323CC7B2343AC
:1010800002F5C07404EB0014E36002F5C07303EBD7
:1010900000131B6843F0010402F5C07303EB001357
:1010A0001C6010BD0168A1F2012106297ED2DFE893
:1010B00001F00304D47DFEFD00BF0178491EF44A0F
:1010C000117011460978C1EBC101F24A32F82110C2
:1010D00000EE101AB8EE400AED490978C1EBC101E3
:1010E00002EB8101D1ED060A30EE600ADFEDEA0A7B
:1010F000B4EEE00AF1EE10FA10DDE5490978C1EB33
:10110000C10102EB81010969491EE14A1278C2EB73
:10111000C202E04B03EB820211612BE0DC4909784B
:10112000C1EBC101DB4A32F8211000EE101AB8EE13
:10113000400AD7490978C1EBC10102EB8101D1ED29
:10114000060A30EE600ADFEDD50AB4EEE00AF1EEF1
:1011500010FA0FD2CE490978C1EBC10102EB81012F
:101160000969491CCA4A1278C2EBC202C94B03EB97
:1011700082021161C6490978C1EBC101C54A32F842
:10118000211000EE101AB8EE400AC1490978C1EBEF
:10119000C10102EB810181ED060A017BC27A41EABD
:1011A0000221BB4A1278C2EBC20200E06CE1B94BEB
:1011B00023F82210827B417B42EA012109B2B44A22
:1011C0001278C2EBC20203EB82025180027CC17B27
:1011D00042EA012109B2AE4A1278C2EBC20203EB25
:1011E00082029180417CAA4A1278C2EBC20203EBD0
:1011F00082021175A6490978C1EBC1011A4602EBBA
:1012000081010969C1EB4131A14A1278C2EBC202E6
:1012100033F82220114400EE101AB8EEC00A9C499F
:101220000978C1EBC1011A4602EB810181ED020A86
:1012300097490978C1EBC10102EB810191ED020AE6
:10124000DFED970A80EE201A91490978C1EBC101C0
:1012500002EB810181ED031A17E19249098800EE42
:10126000101AB8EE400A8F49D1ED060A30EE600A36
:10127000DFED890AB4EEE00AF1EE10FA04DD096947
:10128000491E884A116118E08649098800EE101A43
:10129000B8EE400A8349D1ED060A30EE600ADFED70
:1012A0007F0AB4EEE00AF1EE10FA01E093E039E0D3
:1012B00003D20969491C7B4A11617A49098800EE09
:1012C000101AB8EE400A774981ED060A017BC27A0E
:1012D00041EA0221734A1180827B417B42EA01216B
:1012E00009B2704A5180027CC17B42EA012109B2F5
:1012F0006C4A9180417C117511460969C1EB4131FD
:101300001288114400EE101AB8EEC00A654981ED4A
:10131000020A91ED020ADFED620A80EE201A81EDE9
:10132000031AB2E06049098800EE101AB8EE400ACC
:101330005D49D1ED060A30EE600ADFED570AB4EEE2
:10134000E00AF1EE10FA04DD0969491E564A1161FE
:1013500015E05549098800EE101AB8EE400A5249C6
:10136000D1ED060A30EE600ADFED4C0AB4EEE00A79
:10137000F1EE10FA03D20969491C4B4A11614A493E
:10138000098800EE101AB8EE400A474981ED060AB6
:10139000017BC27A41EA0221434A1180827B417B70
:1013A00042EA012109B2404A518011460969C1EB64
:1013B00041311288114400EE101AB8EEC00A3A49C1
:1013C00081ED020A91ED020ADFED350A80EE201A66
:1013D00081ED031A59E03549098800EE101AB8EE7C
:1013E000400A3249D1ED060A30EE600ADFED2A0AE2
:1013F000B4EEE00AF1EE10FA04DD0969491E2B4A49
:10140000116115E02949098800EE101AB8EE400A6A
:101410002649D1ED060A30EE600ADFED200AB4EE6F
:10142000E00AF1EE10FA03D20969491C1F4A116162
:101430001E49098800EE101AB8EE400A1B4981EDDA
:10144000060A017BC27A41EA0221184A1180827B96
:10145000417B42EA012109B2144A518011460969CF
:10146000C1EB41311288114400EE101AB8EEC00AE7
:101470000E4981ED020A91ED020ADFED090A80EEC4
:10148000201A81ED031A00E000BF00BF7047000082
:10149000F70000204409002000008045000080C5BE
:1014A000610BB6417C09002098090020B409002096
:1014B00010B504462068A0F2013028B1012808D0F8
:1014C000B0F5837F0ED109E02146084800F01CFFEB
:1014D00009E02146054800F003FF04E0E07A0449F2
:1014E000087000BF00BF00BF10BD00002C09002025
:1014F000F60000200246002002EA01030BB10120A1
:1015000000E000207047000010B52DED068B04466A
:10151000B0EE408A0121214802F087FA2EE084EDE6
:10152000138A606C90ED030A38EE400A10EE101A30
:101530000846FEF7C7FE41EC1A0BB0EE4A0AF0EE81
:101540006A0A02F041FFB0EE409AF0EE609A9FED19
:10155000140B53EC102B51EC190BFEF7C7FE07D2FE
:1015600000210E4802F061FA00200F4908600AE0ED
:10157000204601F04BFB012004F0B4FD0A4800684E
:10158000B0F57A7FCBD300BF0021044802F04DFABA
:10159000002005490860BDEC068B10BD001400401A
:1015A000000000A09999B93FF800002010B52DED7A
:1015B000068B0446B0EE408A0121214802F035FA3C
:1015C0002EE084ED0D8AE06A90ED030A38EE400AC1
:1015D00010EE101A0846FEF775FE41EC1A0BB0EE3D
:1015E0004A0AF0EE6A0A02F0EFFEB0EE409AF0EE20
:1015F000609A9FED140B53EC102B51EC190BFEF776
:1016000075FE07D200210E4802F00FFA00200F49A4
:1016100008600AE0204601F0F9FA012004F062FDBA
:101620000A480068B0F57A7FCBD300BF0021044898
:1016300002F0FBF9002005490860BDEC068B10BDE7
:1016400000140040000000A09999B93FF800002064
:1016500005E0034802F028FE012004F043FDF8E70E
:101660002004002010B52DED068B0446B0EE408A14
:101670000121214802F0D9F92EE084ED108AA06BF7
:1016800090ED030A38EE400A10EE101A0846FEF7F5
:1016900019FE41EC1A0BB0EE4A0AF0EE6A0A02F0AB
:1016A00093FEB0EE409AF0EE609A9FED140B53EC6F
:1016B000102B51EC190BFEF719FE07D200210E4832
:1016C00002F0B3F900200F4908600AE0204601F05B
:1016D0009DFA012004F006FD0A480068B0F57A7F03
:1016E000CBD300BF0021044802F09FF90020054938
:1016F0000860BDEC068B10BD00140040000000A087
:101700009999B93FF80000200246094B9A4201D24C
:10171000084801E00648103801F000531BB1064BA1
:101720000B40C36002E0044B0B4083607047000035
:1017300010640240006002407D0F7D0F21B10268FD
:1017400042F00102026003E0026822F0010202603E
:1017500070470146486880B27047014600200A6819
:1017600002F400220AB1012000E00020704741602D
:101770007047704710B5044604EBC400454901EBBF
:101780008000006804EBC401424A02EB810148601A
:1017900005F09EFB04EBC4013E4A02EB81010860A8
:1017A00004EBC400114601EB8000C07CC0F3801044
:1017B000B0B104EBC40001EB8000C07C20F040001D
:1017C00004EBC40102EB8101C87404EBC4001146B0
:1017D00001EB8000006804EBC40102EB8101C860EA
:1017E00004EBC4002B4901EB8000806990B304EB4B
:1017F000C401284A02EB81018869804758B304EB91
:10180000C400244901EB8000C07C20F0200020307F
:1018100004EBC4011F4A02EB8101C87404EBC4004D
:10182000114601EB8000C07C20F08000803004EB8A
:10183000C40102EB8101C87404EBC400114601EB42
:101840008000006A28B304EBC40102EB8101086A3E
:1018500080471EE00FE0FFE704EBC4000D4901EBF9
:101860008000C07C20F0800004EBC401094A02EB38
:101870008101C8740DE004EBC400064901EB80004F
:10188000C07C20F0800004EBC401024A02EB81011D
:10189000C87410BDFC01002010B5044677480078DC
:1018A000062803D07548007800287DD17448007858
:1018B000002872D10620714908708021714800F01B
:1018C000DBFC40F2EE2004F00DFC4FF400516E48BA
:1018D00000F0D4FC4FF480416B4800F0CFFC4FF493
:1018E000FA7004F0FFFB6948D0ED020AB0EE600A1E
:1018F0002046FFF709FE664890ED051AF0EE410A12
:10190000644890ED051AB0EE410A204602F054FCFE
:101910004FF4967004F0E6FB5F48D0ED020AB0EE9B
:10192000600A2046FFF742FE4FF4FA7004F0DAFB3B
:101930008021544800F0A2FC4FF4967004F0D2FBD2
:101940005548D0ED030AB0EE600A2046FFF72EFEA0
:101950004FF4967004F0C6FB40214A4800F08EFC1C
:101960004FF4967004F0BEFB494890ED011AF0EE7A
:10197000410A484890ED011AB0EE410A204602F0B3
:101980001BFC4548D0ED000AB0EE600A2046FFF788
:101990000DFE4FF4967004F0A5FB3948007801283D
:1019A00009D18021374800E05AE000F065FC4FF48F
:1019B000967004F097FB32480078022803D14FF468
:1019C000967004F08FFB2E48007803283DD13048F4
:1019D00090ED001AF0EE410A2E4890ED001AB0EE9C
:1019E000410A204602F0E8FB4FF4C87004F07AFB8D
:1019F0004FF48041244800F03FFC2748D0ED010A15
:101A0000B0EE600A2046FFF7D1FD2048D0ED010A74
:101A1000B0EE600A2046FFF777FD4FF4C87004F07F
:101A200061FB4FF40051184800F026FC4FF496700B
:101A300004F058FB4021134800F01EFC40F2EE2059
:101A400004F050FB00200D4908700D480078401C40
:101A50000B49087008460078042801DB0020087054
:101A600006480078062807D00448007820B1FEF721
:101A7000A9FC00200249087010BD000004000020ED
:101A800060000020000C0240001002401004002002
:101A9000E8030020D00300200004002010B5044615
:101AA00072480078052803D07048007800287CD15F
:101AB0006F48007800286DD105206C49087080219E
:101AC0006C4800F0D9FB40F2EE2004F00BFB4FF421
:101AD0000051694800F0D2FB4FF4FA7004F002FBA9
:101AE0006648D0ED020AB0EE600A2046FFF70CFD12
:101AF000634890ED051AF0EE410A624890ED051A30
:101B0000B0EE410A204602F057FB4FF4967004F005
:101B1000E9FA5D48D0ED020AB0EE600A2046FFF710
:101B200045FD4FF4FA7004F0DDFA8021514800F0D1
:101B3000A5FB4FF4967004F0D5FA5348D0ED030A94
:101B4000B0EE600A2046FFF731FD4FF4967004F0C6
:101B5000C9FA4021474800F091FB4FF4967004F019
:101B6000C1FA474890ED011AF0EE410A454890ED60
:101B7000011AB0EE410A204602F01EFB4248D0EDA9
:101B8000000AB0EE600A2046FFF710FD4FF4967091
:101B900004F0A8FA36480078012809D18021354898
:101BA00000F06AFB4FF4FA7000E051E004F09AFA9A
:101BB0002F480078022803D14FF4967004F092FA6F
:101BC0002B480078032838D12D4890ED001AF0EE0C
:101BD000410A2C4890ED001AB0EE410A204602F06E
:101BE000EBFA4FF4C87004F07DFA2748D0ED010AF3
:101BF000B0EE600A2046FFF7D9FC2048D0ED010A7C
:101C0000B0EE600A2046FFF77FFC4FF4C87004F086
:101C100069FA4FF40051184800F02EFB4FF496700B
:101C200004F060FA4021134800F026FB40F2EE2059
:101C300004F058FA00200D4908700D480078401C47
:101C40000B49087008460078042801DB0020087062
:101C500006480078052807D00448007820B1FEF730
:101C6000B1FB00200249087010BD000004000020F4
:101C70005F000020000C0240001002401004002011
:101C8000E8030020D00300200004002001460020CB
:101C90001CE091ED060A1F4A02EB8002D2ED000A19
:101CA00030EE600A1C4A02EB800282ED000A91EDE0
:101CB000090A1A4A02EB8002D2ED000A30EE200A2D
:101CC000174A02EB800282ED000A401C0628E0D38E
:101CD00000201CE091ED0C0A124A02EB8002D2EDCA
:101CE000000A30EE200A104A02EB800282ED000A60
:101CF00091ED120A0D4A02EB8002D2ED000A30EE9D
:101D0000200A0B4A02EB800282ED000A401C0428E4
:101D1000E0D3704708000020D003002020000020FE
:101D2000E8030020380000200004002048000020C4
:101D30001004002010B5044604B910BD01F06EFC7B
:101D4000F8480078012806D1FEF73CFB607C0128AA
:101D500001D102202074F3480078032819D1F248F9
:101D6000C07A012816D1F048B0F90800B0F5DC7F40
:101D700010DDEE480078022802D0EC48007848B91F
:101D80002046FEF79FFB012004F0ACF90120E84952
:101D9000087085E0E448C07A012816D1E248B0F91D
:101DA000080010F5DC7F10DAE0480078012802D046
:101DB000DE48007848B9204601F0EEF8012004F032
:101DC00091F90220DA4908706AE0D748C07A0328FE
:101DD00016D1D548B0F90800B0F5DC7F10DDD34846
:101DE0000078042802D0D148007848B9204600F095
:101DF000D7FF012004F076F90320CD4908704FE0A9
:101E0000C948C07A032816D1C748B0F9080010F5B0
:101E1000DC7F10DAC5480078032802D0C348007878
:101E200048B9204601F0F6F9012004F05BF90420DE
:101E3000BF49087034E0BC48C07A022816D1BA48BD
:101E4000B0F9080010F5DC7F10DAB84800780628F1
:101E500002D0B648007848B92046FFF71DFD0120A2
:101E600004F040F90620B249087019E0AE48C07A83
:101E7000022815D1AC48B0F90800B0F5DC7F0FDDC1
:101E8000AA480078052802D0A848007840B9204622
:101E9000FFF704FE012004F025F90520A44908708D
:101EA000A048007802287DD19F48007D00F0800086
:101EB00010B901209F4908709B48007D00F0800008
:101EC000C0B19948007D00F0100098B197480078A3
:101ED000022802D09548007860B996480078012819
:101EE00008D10020934908702046FEF7EBFA012044
:101EF00004F0F8F88C48007D00F08000C0B18A48FA
:101F0000007D00F0100098B988480078012802D0C0
:101F10008648007860B987480078012808D10020F9
:101F200084490870204601F037F8012004F0DAF8FF
:101F30007D48808A00F4807010B901207E490870C5
:101F40007948808A00F48070C0B17748007D00F045
:101F5000200098B175480078052802D073480078B1
:101F600060B975480078012808D1002072490870CE
:101F70002046FFF793FD012004F0B4F86A48808AF8
:101F800000F48070D0B16848007D00F02000A8B94E
:101F900066480078062802D06448007870B9664820
:101FA000007800E0BBE0012808D1002062490870F9
:101FB0002046FFF771FC012004F094F85A48808A0B
:101FC00000F4006010B901205C4908705648808A0E
:101FD00000F4006098B155480078032802D05348B7
:101FE000007860B955480078012808D1002053498D
:101FF0000870204601F00EF9012004F073F84A48F9
:10200000808A00F4805010B901204D49087046487C
:10201000808A00F4805098B144480078042802D0A7
:102020004248007860B946480078012808D100206D
:1020300043490870204600F0B3FE012004F052F836
:102040003948808A00F4007010B901203D490870B9
:102050003548808A00F4007070B13A480078012851
:102060000AD10020374908704FF40061364800F06B
:1020700007F9012004F036F82B48808A00F48060CC
:1020800010B90120314908702748808A00F4806027
:1020900070B12E48007801280AD100202B49087021
:1020A0004FF40041284800F0EBF8012004F01AF842
:1020B0001D48808A00F4004010B9012024490870AE
:1020C0001948808A00F4004070B121480078012846
:1020D0000AD100201E4908704FF480511A4800F0C0
:1020E000CFF8012003F0FEFF0F48007D00F0400014
:1020F00010B90120174908700B48007D00F040001E
:1021000068B114480078012809D1002011490870ED
:102110008021114800F0B4F8322003F0E3FF00BF43
:102120000BE60000E40000202C0900200400002041
:102130005A0000206100002062000020630000209F
:1021400064000020650000200010024066000020AE
:102150006700002068000020000C024011E004210C
:10216000084800F080F8084908700848007C10B959
:102170000648FFF78BFD0548FFF7DCFD012003F063
:10218000B1FFECE7000C02405800002020040020C2
:10219000F0B50A4600210023002400BF3DE00125E0
:1021A00005FA01F3156805EA03049C4234D1056879
:1021B0004F000326BE40B543056015794E00B5407B
:1021C0000668354305601579012D02D01579022D79
:1021D00016D185684F000326BE40B543856055790A
:1021E0004E00B540866835438560456801268E40BF
:1021F000B5434560456896798E40B6B23543456033
:10220000C5684F000326BE40B543C560D5794E0072
:10221000B540C6683543C560491C1029BFD3F0BD21
:10222000F0B5002300244D07ED0E02FA05F3CE10A1
:1022300000F1200555F826504E07F70E0F26BE4038
:10224000B543CF1000F1200646F82750CE1000F11C
:10225000200555F8265045EA0304CE1000F120056C
:1022600045F82640F0BD0246002013690B400BB133
:10227000012000E0002070474183704701837047D0
:1022800042694A404261704730B5034613B94FF680
:10229000FF7030BD09E013F8014B82EA0400C0B2C0
:1022A000054D35F8100080EA2222081EA1F1010137
:1022B000F1D11046EDE700002C78000830B5034658
:1022C00005E013F8010B80EA02040448025D081ED1
:1022D000A1F10101F5D1104630BD00002B770008B7
:1022E0000A7BCB7A42EA032212B202818B7B4A7BC1
:1022F00043EA02228282CB7B83740B7CC3744A7CC8
:1023000082728B7CC37270470A7BCB7A42EA0322CB
:1023100012B202808B7B4A7B43EA022212B24280D5
:102320000B7CCA7B43EA022212B282808B7C4A7CFD
:1023300043EA022212B2C280164AB2F9002012F514
:10234000257F26D1134AB2F9022012F5257F20D12C
:10235000104AB2F90420B2F5257F1AD10D4AB2F91C
:10236000062012F5257F14D1012282F3138800BFC5
:1023700000BFBFF34F8F084A126802F4E062074BB8
:102380001A43121D044B1A60BFF34F8F00BF00BFEA
:10239000FEE770472C0900200CED00E00000FA0574
:1023A00000BFFEE770B504465CB12546B5F80100F4
:1023B00000F10901284604F0FFF810B1204602F0B0
:1023C000E9F970BD10B508210848FFF74CFF58B96E
:1023D0000A2003F087FE08210448FFF744FF08B9EC
:1023E000002010BD0120FCE700BFFAE7000C02400E
:1023F0001CB50121082001F05BF8082000900020A6
:102400008DF804008DF8060001208DF807000320E8
:102410008DF8050069460248FFF7BAFE1CBD0000B2
:10242000000C02401CB50121082001F041F80420F5
:10243000009000208DF804008DF8060001208DF832
:10244000070003208DF8050069460248FFF7A0FE4B
:102450001CBD0000000C02402DE9F04F0C4609ADF8
:1024600095E8E010DDE90D89002106E014F801A0EF
:10247000C1F1020B00F80BA0491C032904DA14F87F
:1024800001A0BAF1000FF1D190F803A062F3020AA3
:1024900080F803A0B0F803A063F3891AA0F803A0A2
:1024A00090F804A065F3850A80F804A0B0F807A0AE
:1024B00066F3090AA0F807A0B0F808A067F38C0A31
:1024C000A0F808A0B0F809A06CF34F1AA0F809A072
:1024D000B0F80CA068F38C0AA0F80CA0B0F80DA01E
:1024E00069F34F1AA0F80DA0BDE8F08F00BFFEE71A
:1024F0002DED048B4FF47A7003F0F4FD0AE1864869
:10250000007C002828D140218448FFF7B7FE012035
:1025100003F0E8FD8048C068007801281DD17E489E
:1025200090ED070AF2EE040A30EE200A80ED070A69
:1025300090ED0A0AF2EE040A30EE600A80ED0A0A13
:1025400090ED0F0A80ED100A90ED120A80ED130A4B
:1025500090ED0C0A80ED0D0A5CE06F48C0680078D1
:1025600090BBFFF72FFF01282FD16B4890ED120A87
:10257000DFED6B0A30EE600A80ED130A002011E0F7
:1025800000EB40026449143151F8221091ED030A26
:1025900000EB40026049143101EB820181ED010A38
:1025A000411CC8B20228EBDB5B48C06A90ED030A0D
:1025B000594880ED0C0A90ED0D0AF1EE040A30EE58
:1025C000600A80ED0D0A25E0FFE75348C0680078F7
:1025D00000BBFFF7F7FEE8B903204F49087408462F
:1025E00090ED0C0A80ED0D0A002011E000EB400296
:1025F0004949143101EB820191ED010A00EB4002DF
:102600004549143101EB820181ED020A411CC8B237
:102610000228EBDB4048007C032878D14148007851
:1026200060BB3D4890ED0C0ADFED3F0A30EE200A1A
:1026300080ED0D0A90ED0D0AC06AD0ED030A30EE70
:10264000600A10EE101A0846FDF73CFE41EC190B2B
:10265000B0EE490AF0EE690A01F0B6FEB0EE408A2B
:10266000F0EE608A9FED310B53EC102B51EC180B00
:10267000FDF73CFE02D801202A490870294800785D
:10268000012828D1244890ED120A80ED130A90ED1C
:10269000130A406CD0ED030A30EE600A10EE101AF7
:1026A0000846FDF70FFE41EC190BB0EE490AF0EEBB
:1026B000690A01F089FEB0EE408AF0EE608A9FED73
:1026C0001B0B53EC102B51EC180BFDF70FFE02D82F
:1026D00002201449087013480078022809D14021CB
:1026E0000E48FFF7C9FD012003F0FCFC03200D4953
:1026F00008700C480078032809D1012006490874A5
:102700000020084908700448007C034948740120EF
:1027100003F0E8FCF3E6000020040020000C024077
:1027200000804A45D800002000C0D544000000A029
:102730009999B93F054800F00BF805E0034800F00F
:1027400065FA012003F0CEFCF8E700002004002029
:1027500070B50446002540E005EBC50204F15001C8
:1027600001EBC200DFED5B0A9FED5B0A5B4A0021D3
:1027700000F01CFA05EBC50204F1E00101EBC20018
:10278000DFED540A9FED560A564A002100F00EFA7A
:10279000284601F0B5FF05EB450204F1140141F8AC
:1027A00022009FED510A05EB450104F1140000EBF6
:1027B000810080ED010A05EB450104F1140000EBF6
:1027C000810090ED010A05EB450104F1140000EBD6
:1027D000810080ED020A681CC5B2022DBCDBDFED72
:1027E000430A9FED430A434A002104F5B87000F004
:1027F000DDF9DFED3F0A9FED3A0A3F4A002104F57B
:10280000DC7000F0D3F9DFED3D0A9FED3D0A3D4A53
:10281000002104F5007000F0C9F9DFED3B0A9FEDDF
:102820003B0A3B4A002104F5127000F0BFF9DFEDCE
:10283000390A9FED390A394A002104F5247000F065
:10284000B5F9DFED240A9FED360A364A002104F57A
:10285000367000F0ABF90020207401F087FF606053
:1028600001F04AFFE06001F03BFFE06201F040FF51
:10287000A06301F039FF60640120E16808702A4814
:10288000806B90ED030A284880ED0F0A406C90EDB4
:10289000030A254880ED120AC06A90ED030A224817
:1028A00080ED0C0AD0ED0C0AB0EE600AFEF77EFE59
:1028B0001D48D0ED120AB0EE600AFEF725FE1A4858
:1028C000D0ED0F0AB0EE600AFEF7CCFE02F0BAFEC1
:1028D00070BD000000007A440000FA447800002037
:1028E00000A08C4684000020000000000000484446
:1028F00000009644900000209C0000200000C84288
:1029000000808944A8000020000096430060EA454A
:10291000B400002000002F4400409C44C000002070
:1029200000401C46CC00002020040020704700001E
:1029300070B5002100230F22C4781CB3174C246803
:1029400004F4E064C4F5E064C4F30721C1F10404B5
:10295000E3B20A4144789C40E1B2847814402143B8
:102960000C07210E0E4C05786155047804F01F0504
:102970000124AC4005786D11AD0005F1E025C5F8E6
:10298000004109E0047804F01F050124AC40054D26
:102990000678761145F8264070BD00000CED00E089
:1029A00000E400E080E100E002490143024A1160D6
:1029B000704700000000FA050CED00E0B0EE401A90
:1029C00010B99FED790A704790ED100A80ED110A59
:1029D00090ED0F0A80ED100AC0ED060A80ED071A8F
:1029E00030EEC10A80ED0F0A0178002975D190ED13
:1029F000010AD0ED0F1A20EE210A80ED090A90EDB0
:102A00000A0AD0ED021A90ED0F2A01EE820A80ED3B
:102A10000A0A90ED0D0A80ED0E0A90ED0C0A80ED89
:102A20000D0A90ED0F0AD0ED101A30EE610A80ED1C
:102A30000C0A90ED030AD0ED0C1A20EE210A80ED6D
:102A40000B0A90ED0A0AD0ED051AB4EEE10AF1EE98
:102A500010FA04DD90ED050A80ED0A0A10E090ED11
:102A60000A0AD0ED051AF1EE611AB4EEE10AF1EEB0
:102A700010FA05D290ED050AB1EE400A80ED0A0A7F
:102A800090ED090AD0ED0A1A30EE210AD0ED0B1AAA
:102A900030EE210A80ED080A90ED080AD0ED041A04
:102AA000B4EEE10AF1EE10FA04DD90ED040A80EDD7
:102AB000080A76E090ED080AD0ED041AF1EE611AEA
:102AC000B4EEE10AF1EE10FA6BD290ED040AB1EE29
:102AD000400A80ED080A64E0FFE70178012960D12F
:102AE00090ED0F0AD0ED101A30EE610AD0ED011A08
:102AF00020EE210A80ED090A90ED020AD0ED0F1AAE
:102B000020EE210A80ED0A0A90ED0D0A80ED0E0AF2
:102B100090ED0C0A80ED0D0A90ED0F0AD0ED101A21
:102B2000B0EE002A02EE610AD0ED111A30EE210A51
:102B300080ED0C0A90ED030AD0ED0C1A20EE210A6C
:102B400080ED0B0A90ED090AD0ED0A1A30EE210A49
:102B5000D0ED0B1A30EE210AD0ED081A30EE210A22
:102B600080ED080A90ED080AD0ED041AB4EEE10AEF
:102B7000F1EE10FA04DD90ED040A80ED080A10E091
:102B800090ED080AD0ED041AF1EE611AB4EEE10AF4
:102B9000F1EE10FA05D290ED040AB1EE400A80ED94
:102BA000080A90ED080A0EE70000000000B102B923
:102BB0007047017092ED001A80ED011A92ED011A32
:102BC00080ED021A92ED021A80ED031A80ED040ADC
:102BD000C0ED050A9FED0C1A80ED0E1A80ED0D1A5E
:102BE00080ED0C1A9FED081A80ED081A80ED0B1A83
:102BF00080ED0A1A80ED091A80ED111A80ED101A85
:102C000080ED0F1A00BFD3E70000000070B5044646
:102C100000253DE005EB450204F1140101EB8201C2
:102C200091ED021AF0EE410A05EB450204F11401A0
:102C300051F8221091ED031AB0EE410A05EBC502DE
:102C400004F1500101EBC200FFF7B8FE05EBC5022D
:102C500004F1500101EBC20191ED081AF0EE410AB6
:102C600005EB450204F1140151F82210B1F90210EC
:102C700001EE101AB8EEC11AB0EE410A05EBC5021A
:102C800004F1E00101EBC200FFF798FE681CC5B239
:102C9000022DBFDB94ED0D1AF0EE410AE06A90EDD3
:102CA000031AB0EE410A04F5B870FFF787FE94ED01
:102CB000641AF0EE410AE06AB0F9020001EE100A6F
:102CC000B8EEC11AB0EE410A04F5DC70FFF776FEEB
:102CD00094ED101AF0EE410AA06B90ED031AB0EEDD
:102CE000410A04F50070FFF769FE94ED881AF0EED2
:102CF000410AA06BB0F9020001EE100AB8EEC11A49
:102D0000B0EE410A04F51270FFF758FE94ED131A65
:102D1000F0EE410A606C90ED031AB0EE410A04F542
:102D20002470FFF74BFE94EDAC1AF0EE410A606C94
:102D3000B0F9020001EE100AB8EEC11AB0EE410A75
:102D400004F53670FFF73AFE94ED760ABDEEC00A40
:102D500010EE103A1AB294ED520ABDEEC00A10EE0F
:102D6000103A19B294ED400ABDEEC00A10EE103AC6
:102D700018B20023FDF7D6FC94EDBE0ABDEEC00AE2
:102D800010EE102A11B294ED9A0ABDEEC00A10EEB0
:102D9000102A10B200231A46FDF70EFD70BD000088
:102DA00010B5044674480078042803D072480078AF
:102DB00000287DD17148007850BB04206E4908700E
:102DC00080216F48FFF758FA40216D48FFF756FA07
:102DD0006C48D0ED010AB0EE600A2046FEF7E6FB33
:102DE0006948D0ED010AB0EE600A2046FEF78CFB80
:102DF000664890ED031AF0EE410A654890ED031A1B
:102E0000B0EE410A204601F0D7F9642003F06AF9D8
:102E10005A48007801287CD180215948FFF72EFAC2
:102E20004FF4967003F05EF94FF400515948FFF7E4
:102E300025FA4FF4FA7003F055F9544890ED001A52
:102E4000F0EE410A524890ED001AB0EE410A2046D9
:102E500001F0B2F94C48D0ED030AB0EE600A20460A
:102E6000FEF752FB4748D0ED030AB0EE600A204659
:102E7000FEF79CFB4FF4C87003F034F94021404842
:102E8000FFF7FAF940F2EE2003F02CF93F4890EDFD
:102E9000041AF0EE410A3E4890ED041AB0EE410AE1
:102EA000204601F089F94FF4FA7003F01BF900E0B5
:102EB00055E080213248FFF7DFF940F2EE2003F0C1
:102EC00011F940212E48FFF7D9F94FF4967003F01D
:102ED00009F92E4890ED001AF0EE410A2C4890EDC9
:102EE000001AB0EE410A204601F066F94FF4FA707C
:102EF00003F0F8F82348D0ED010AB0EE600A20464E
:102F0000FEF754FB2048D0ED010AB0EE600A2046DF
:102F100000E019E0FEF7F8FA4FF4C87003F0E2F8A9
:102F20004FF400511B48FFF7A7F94FF4967003F0D8
:102F3000D9F840211248FFF79FF940F2EE2003F044
:102F4000D1F800200C4908700C480078401C0B494F
:102F5000087008460078022801DB00200870064847
:102F60000078042807D00448007820B1FDF72AFA39
:102F700000200249087010BD040000205E000020FF
:102F8000000C02400004002010040020E803002090
:102F9000D00300200010024010B504469448007889
:102FA000012803D09248007800287CD1914800780D
:102FB00010BB01208E49087080218F48FFF75CF913
:102FC0008E48D0ED000AB0EE600A2046FEF7EEFA19
:102FD0008B48D0ED000AB0EE600A2046FEF794FA66
:102FE00040F2EE2003F07EF840218348FFF746F9D7
:102FF0004FF4967003F076F87E480078012807D1E8
:1030000080217D48FFF73AF94FF4967003F06AF893
:103010007848007802280DD17A48007D00F0200021
:1030200040B94FF400517848FFF728F94FF49670F3
:1030300003F058F86F48007802280FD17148007DDE
:1030400000F0200050B180216B48FFF715F94FF4D4
:10305000967003F047F800206649087065480078CC
:1030600003287FD16748007D00F02000002879D137
:103070006348D0ED030AB0EE600A2046FEF744FA3A
:103080005E48D0ED030AB0EE600A2046FEF78EFAE5
:103090004FF4FA7003F026F840215748FFF7ECF898
:1030A00040F2EE2000E095E003F01CF8574890ED68
:1030B000041AF0EE410A564890ED041AB0EE410AA7
:1030C000204601F079F84FF4FA7003F00BF88021F4
:1030D0004948FFF7D1F840F2EE2003F003F8402111
:1030E0004548FFF7CBF84FF4967002F0FBFF4748D6
:1030F00090ED001AF0EE410A454890ED001AB0EE4E
:10310000410A204601F058F84FF4967002F0EAFFA9
:103110003A48D0ED010AB0EE600A2046FEF746FAC2
:103120003748D0ED010AB0EE600A2046FEF7ECF910
:103130004FF4C87002F0D6FF4FF400513248FFF749
:103140009BF84FF4967002F0CDFF40212A48FFF71C
:1031500093F840F2EE2002F0C5FF0020244900E081
:1031600000E0087023480078032828D12548007D16
:1031700000F0200018B380211F48FFF77DF84FF4BE
:10318000967002F0AFFF40211B48FFF775F84FF42F
:10319000FA7002F0A7FF4FF400511B48FFF76CF8DC
:1031A00040F2EE2002F09EFF40211348FFF766F840
:1031B0004FF4FA7002F096FF00200E4908700D4897
:1031C0000078401C0B49087008460078042801DB91
:1031D0000020087006480078012807D004480078CD
:1031E00020B1FDF7EFF800200249087010BD000083
:1031F000040000205B000020000C024000040020BE
:10320000100400202C09002000100240E8030020D8
:10321000D003002010B504469C480078032803D052
:103220009A48007800287DD199480078A0BB0320F7
:103230009649087080219748FFF71EF8402195486D
:10324000FFF71CF84FF400519348FFF717F84FF4BD
:10325000967002F047FF914890ED021AF0EE410A95
:103260008F4890ED021AB0EE410A204600F0A4FF0C
:103270008C48D0ED000AB0EE600A2046FEF796F9C1
:103280008948D0ED000AB0EE600A2046FEF73CF90E
:103290004FF4967002F026FF7D480078012807D190
:1032A00080217C48FEF7EAFF4FF4967002F01AFF87
:1032B0007748007802280FD17C48007D00F020007C
:1032C00050B180217348FEF7D7FF4FF4967002F09B
:1032D00009FF00206E4908706D480078022815D15A
:1032E0007248007D00F0200080B96C4890ED001A13
:1032F000F0EE410A6A4890ED001AB0EE410A20460D
:1033000000F05AFF4FF4967002F0ECFE604800782F
:10331000032822D16548007D00F02000E8B180211B
:103320005C4800E0A4E0FEF7A7FF4FF4967002F0BF
:10333000D9FE5A4890ED021AF0EE410A584890ED35
:10334000021AB0EE410A204600F036FF4FF49670A4
:1033500002F0C8FE00204E4908704D48007803284E
:103360007BD15248007D00F02000002875D14E48E6
:10337000D0ED030AB0EE600A2046FEF7C5F84948D2
:10338000D0ED030AB0EE600A2046FEF70FF94FF4C5
:10339000C87002F0A7FE40213E48FEF76DFF40F2E4
:1033A000EE2002F09FFE3D4890ED041AF0EE410A37
:1033B0003B4890ED041AB0EE410A204600F0FCFEB6
:1033C0004FF4FA7002F08EFE80213248FEF754FF6F
:1033D00040F2EE2002F086FE40212E48FEF74EFF1E
:1033E0004FF4967002F07EFE2C4890ED001AF0EE3D
:1033F000410A2B4890ED001AB0EE410A204600F039
:10340000DBFE4FF4967002F06DFE2648D0ED010A07
:10341000B0EE600A2046FEF7C9F82348D0ED010A55
:10342000B0EE600A2046FEF76FF84FF4C87002F065
:1034300059FE4FF400511848FEF71EFF4FF49670E6
:1034400002F050FE40211348FEF716FF40F2EE2036
:1034500002F048FE00200D4908700D480078401C1D
:103460000B49087008460078042801DB002008702A
:1034700006480078032807D00448007820B1FCF7FC
:10348000A1FF00200249087010BD000004000020C8
:103490005D000020000C024000100240E803002004
:1034A000D003002000040020100400202C0900207C
:1034B00029B1064A12680243044B1A6004E0034A29
:1034C00012688243014B1A60704700003038024096
:1034D00029B1064A12680243044B1A6004E0034A09
:1034E00012688243014B1A60704700004038024066
:1034F00029B1064A12680243044B1A6004E0034AE9
:1035000012688243014B1A60704700002038024065
:1035100029B1064A12680243044B1A6004E0034AC8
:1035200012688243014B1A60704700004438024021
:10353000F0B5002100220024022500260223324F8C
:103540003F6807F00C0121B1042905D0082937D1C3
:1035500005E02E4F076036E02D4F076033E02A4F1D
:103560003F1F3F68C7F38056274F3F1F3F6807F054
:103570003F036EB1264FB7FBF3F7DFF88CC0ACF119
:10358000040CDCF800C0CCF3881C07FB0CF40CE046
:103590001E4FB7FBF3F7DFF870C0ACF1040CDCF89A
:1035A00000C0CCF3881C07FB0CF4174F3F1F3F688B
:1035B000C7F301477F1C7D00B4FBF5F7076002E00D
:1035C000124F076000BF00BF0F4F3F6807F0F001C8
:1035D0000909104F7A5C0768D74047600A4F3F6877
:1035E00007F4E051890A0B4F7A5C4768D74087603F
:1035F000054F3F6807F46041490B064F7A5C476806
:10360000D740C760F0BD0000083802400024F40035
:1036100000127A0030010020704700002B48B0F9FA
:10362000000010F5257F26D12848B0F9020010F5DA
:10363000257F20D12548B0F90400B0F5257F1AD1A7
:103640002248B0F9060010F5257F14D1012080F33F
:10365000138800BF00BFBFF34F8F1D48006800F400
:10366000E0601C490843001D19490860BFF34F8FF3
:1036700000BF00BFFEE71548C07A032807D11348F2
:10368000807A012803D10220134908701DE00F48F9
:10369000807A032802D11049087016E00B48C07ADE
:1036A000022807D10948807A022803D101200A495B
:1036B00008700AE00548C07A012806D10348807ADC
:1036C000012802D104200449087070472C09002009
:1036D0000CED00E00000FA05E400002000B101B9A3
:1036E00070470278437842EA0322C2F30A020A8052
:1036F0004278D210837842EA4312C2F30A024A8027
:1037000082789211C37842EA8302037942EA8322E3
:10371000C2F30A028A8002795210437942EAC31244
:10372000C2F30A02CA804279C2F301128A72427954
:1037300012119308CB728279C37942EA032212B242
:103740008A81027A437A42EA032213B201F10C021F
:10375000CB81827AC37A42EA032213B201F10C02CE
:103760000B82037B8B74437BCB74827BC37B42EAEB
:1037700003228A82027C437C42EA032212B20A813B
:103780000A88A2F5806212B20A804A88A2F5806295
:1037900012B24A808A88A2F5806212B28A80CA88F0
:1037A000A2F5806212B2CA800A89A2F5806212B2C2
:1037B0000A8100BF94E700000CB500200190009042
:1037C0003448006840F480303249086000BF314816
:1037D000006800F4003000900198401C01900098AF
:1037E00018B90198B0F5A04FF1D12A48006800F44B
:1037F000003010B10120009001E0002000900098FE
:10380000012846D123484030006840F080502149CB
:10381000403108602048006840F440401E4908607C
:103820001C48083000681B490831086008460068D9
:1038300040F4004008600846006840F4A05008606A
:103840001648091F0860081F006840F08070091FB3
:10385000086000BF0F48006800F000700028F9D031
:1038600040F205700E4908600A480830006820F0F0
:1038700003000849083108600846006840F002006B
:10388000086000BF03480830006800F00C000828FA
:10389000F8D10CBD003802400070004008544007C9
:1038A000003C0240042808D14FF0E021096941F0B2
:1038B00004014FF0E022116107E04FF0E0210969B7
:1038C00021F004014FF0E0221161704710B503F0C0
:1038D000EFFA012801D002F059FF10BD10B51548CC
:1038E000006840F47000134908601348006840F015
:1038F00001001149086000200F49083108600E4896
:1039000000680E4908400C4908600D48091D086010
:10391000081F006820F48020091F08600020064965
:103920000C310860FFF748FF4FF000600149803913
:10393000086010BD88ED00E000380240FFFFF6FE91
:103940001030002408B5A82000F034FE4FF4407079
:10395000FFF72AF800200323082219460090FCF7FD
:103960005DFF00200323082219460090FDF700F8B0
:103970004FF4FA6000F040FE4FF4E13000F0BCFA82
:1039800042F2CF01092000F00BF8FEF731FDFEF7FF
:1039900049FDFCF775FD4FF4FA6000F02DFE08BDFF
:1039A0007FB505460C4601212020FFF791FD0295C9
:1039B000ADF804400020ADF806004FF48070ADF87B
:1039C0000C0001A90B4800F057F8012211460948E4
:1039D00000F048F837208DF8000001208DF8010034
:1039E00000208DF8020001208DF803006846FEF7E4
:1039F0009FFF7FBD0014004010B50121074800F073
:103A000020F8012808D10121044800F00BF80448EF
:103A10000068401C0249086010BD0000001400400E
:103A2000F8000020CA430282704721B1028842F0A8
:103A30000102028004E002884FF6FE731A40028001
:103A4000704730B50246002000230024158A05EA9D
:103A50000103958905EA010413B10CB1012000E0CE
:103A6000002030BD1AB183890B43838102E0838932
:103A70008B4383817047000000220288184B9842D4
:103A80000ED0184B98420BD0B0F1804F08D0164B97
:103A9000984205D0154B984202D0154B984204D15C
:103AA0004FF68F731A404B881A43124B984207D037
:103AB000114B984204D04FF6FF431A400B891A432A
:103AC00002804B68C3620B880385054B984202D085
:103AD000044B984201D18B7A03860123838270477D
:103AE00000000140000401400004004000080040C4
:103AF000000C004000100040001400400FB470B5EE
:103B00008AB04FF6FF70059000F034FE00F0BAFD69
:103B10000FA8009003ADA5208DF80C000E98C0EB07
:103B20000010801D80B2ADF80D004A4800788DF875
:103B30000F00FF2204212846FEF7C0FB8DF810007D
:103B400040F20130ADF811000E98012806D002288D
:103B500009D005280CD0072814D10EE040F201103E
:103B6000ADF8040014E04FF48170ADF804000FE0EC
:103B700040F20310ADF804000AE04FF48270ADF893
:103B8000040005E04FF0FF300AB070BC5DF814FB94
:103B900000BF31480078ADF8060030480088ADF825
:103BA000080003ADBDF8142007212846FEF76CFB82
:103BB000059001ADBDF8142006212846FEF764FBF0
:103BC000059003AD002404E0287800F049F86D1C4E
:103BD000641C072CF8D301AD002404E0287800F021
:103BE0003FF86D1C641C062CF8D300241CE00099DF
:103BF00001F11000009091E80D00C968CDE907239C
:103C00000991069006ADBDF814200F212846FEF755
:103C10003BFB0590002604E0287800F021F86D1C9D
:103C2000761C0F2EF8D3641C0E988442DFDB05ADA2
:103C3000002404E0287800F013F86D1C641C022CAA
:103C4000F8D30020009003480078401C0149087018
:103C5000002099E7D8010020C9010020CA010020F6
:103C600010B504462146054800F0A1FA00BF8021A6
:103C7000024800F0D0F90028F9D010BD001401402E
:103C800010B540F225513A4800F0D2F918B1384841
:103C900000F088FA6BE040F22441354800F0C8F9A2
:103CA000002864D0324800F07DFA3248FDF755FD17
:103CB00050BB00212F48FDF741FD2E48FDF749FD7F
:103CC000C0F124002C49088024212A48FDF74FFD2B
:103CD0002848006840F4002026498839C1F8880047
:103CE00026492448FDF710FD01212248FDF726FD55
:103CF00021480088122835D121492248FFF7EEFCDF
:103D00001F48FFF789FC2DE000211A48FDF716FD3A
:103D10001848FDF71EFDC0F1240017490880242132
:103D20001448FDF724FD1348006820F400201149D1
:103D30008839C1F8880011490E48FDF7E5FC0121DA
:103D40000C48FDF7FBFC0C48008812280AD10C49EE
:103D50000C482430FFF7C2FC0948FFF75DFC002047
:103D6000FDF708FD40F22441014800F039F910BD8B
:103D70000044004088600240F40000203000002031
:103D80002C090020E408002010B540F225515648C7
:103D900000F04EF900287DD040F22551524800F045
:103DA0001FF9514800885048001D00884E4800F017
:103DB000F9F94E4908704E48007858B9084600781D
:103DC000A52807D101204A49087048480078494988
:103DD000087071E046480078012807D10220444964
:103DE0000870424800784349487065E040480078D0
:103DF000022816D103203E4908703C4800783D490E
:103E0000887008464078001D3849097840EA01204A
:103E1000374948800846408864284DDD00200870F6
:103E20004AE033480078032807D10420304908705D
:103E30002E4800782F49C8703EE02D4800780428AD
:103E400014D105202A4908702848007829490871AA
:103E50000521284802F0D0FB18B1002024498880B1
:103E60002AE0002022498880087025E02048007858
:103E700005281CD11E484088002818DD1C484088B1
:103E8000401E1B4948801948027808468088898866
:103E9000491C00E01CE0164B9980401D15490A544E
:103EA0001846408840B906201946087004E00020F2
:103EB0000F490870488088800D480078062807D18F
:103EC0000C48FEF76FFA0020094908704880888086
:103ED00040F22531044800F0ABF820B102480088D8
:103EE0000148001D008810BD001401401001002091
:103EF000FC000020F809002010B588B0044601211C
:103F00000420FFF7D5FA01212020FFF701FB08224A
:103F100006212F48FEF784F9082207212C48FEF7D6
:103F20007FF94020029002208DF80C0000208DF8CF
:103F30000E0003208DF80D0000208DF80F0002A95F
:103F40002348FEF725F98020029002A92048FEF7B9
:103F50001FF904940020ADF81400ADF81600ADF878
:103F600018000C20ADF81A000020ADF81C0004A9C0
:103F7000184800F0ADF80121164800F040F8012281
:103F800040F22551134800F07DF800220121322033
:103F900002F016FC1049086000220121322002F0D4
:103FA0000FFC0E49086001210A4800F028F847205C
:103FB0008DF8040009208DF8050000208DF806001A
:103FC00001208DF8070001A8FEF7B2FC08B010BD73
:103FD00000080240001401400401002008010020F4
:103FE00010B50022002340F66A14A14200D100BFA0
:103FF0000A1201249440A3B2DC43048010BD21B115
:10400000828942F40052828104E082894DF6FF7376
:104010001A408281704702460020B1F5007F00D12E
:1040200000BF13880B400BB1012000E00020704757
:1040300070B50246002400230025002040F66A16D1
:10404000B14200D100BFC1F3421501F01F030126A8
:1040500006FA03F3012D02D19689334006E0022DC2
:1040600002D1168A334001E0968A33400C120126B1
:1040700006FA04F41688344013B10CB1012000E0B4
:10408000002070BDF0B50346002400260025002066
:1040900040F66A17B94200D100BF1846C1F3421476
:1040A00001F01F06012707FA06F5012C01D10C309B
:1040B00004E0022C01D1103000E014301AB107687E
:1040C0002F43076002E00768AF430760F0BD0000C0
:1040D0002DE9FF4705460E460024A14600BFA04635
:1040E000B08900B100BF2C8A24F44054F088044306
:1040F0002C82AC8941F20C608443B088318908433A
:10410000718908430443AC81AC8A24F44074B089BB
:104110000443AC826846FFF70BFA2048854202D080
:104120001F48854202D1DDF80C9001E0DDF80890CF
:10413000A88900F4004040B109EBC90000EB091068
:1041400031684900B0FBF1F707E009EBC90000EB6B
:10415000091031688900B0FBF1F76420B7FBF0F07B
:1041600004012009642101FB1078A88900F40040B3
:1041700040B1322000EBC800B0FBF1F000F00700C6
:10418000044308E0322000EB08106421B0FBF1F09A
:1041900000F00F0004432C81BDE8FF8700100140B0
:1041A0000014014001468888C0F308007047C1F33D
:1041B000080282807047000010B52DED068B044682
:1041C000B0EE408AF0EE608A01213248FFF72DFC04
:1041D0004FE0C4ED0A8A84ED078A606990ED030A16
:1041E00038EE400A10EE101A0846FCF76BF841EC66
:1041F0001A0BB0EE4A0AF0EE6A0A00F0E5F8B0EEEB
:10420000409AF0EE609A9FED240B53EC102B51EC8A
:10421000190BFCF76BF826D2206A90ED030A38EEF2
:10422000C00A10EE101A0846FCF74CF841EC1A0BC5
:10423000B0EE4A0AF0EE6A0A00F0C6F8B0EE409A14
:10424000F0EE609A9FED140B53EC102B51EC190B10
:10425000FCF74CF807D200210E48FFF7E6FB0020E0
:104260000F4908600AE02046FEF7D0FC012001F06B
:1042700039FF0B480068B0F57A7FAAD300BF002150
:104280000448FFF7D2FB002005490860BDEC068B0F
:1042900010BD000000140040000000A09999B93F33
:1042A000F800002000BFFEE710B5044604B910BDB9
:1042B00038480078042869D1FFF7B0F994ED100A66
:1042C0003548B0F9000000EE900AF8EEE00A9FEDE4
:1042D000331A00EE810A84ED100A94ED0D0A2E487F
:1042E000B0F9020000EE900AF8EEE00A9FED2B1AFA
:1042F00000EE810A84ED0D0A94ED130A2648B0F908
:10430000040000EE900AF8EEE00A9FED241A00EE99
:10431000810A84ED130A94ED070A1F48B0F90600DC
:1043200000EE900AF8EEE00A9FED1D1A00EE810AF9
:1043300084ED070A94ED0A0A1748B0F9060000EE6A
:10434000900AF8EEE00A9FED161A00EEC10A84ED1D
:104350000A0A1148B0F9080010F5DC7F07DA40219D
:104360001048FDF78DFF4FF4C87001F0BBFE0A48FE
:10437000B0F90800B0F5DC7F09DD80210948FDF7C0
:104380007FFF4FF4C87001F0ADFE00E08FE700BF83
:104390008DE70000E40000202C0900200AD7A33B91
:1043A000CDCCCC3C000C02400FB4054B10B503A99A
:1043B000044A029800F022F810BC5DF814FB0000DB
:1043C000C54600080C0100202DED020B019820F0DD
:1043D000004001909DED000B02B0704702E008C85C
:1043E000121F08C1002AFAD170477047002001E06F
:1043F00001C1121F002AFBD1704700002DE9FF4FB9
:104400008BB09A460F460546002606E025280BD0BD
:1044100052460D9990476D1C761C28780028F5D1DE
:104420000FB03046BDE8F08F0024A046012260495D
:1044300000E0044315F8013F203B02FA03F0084274
:10444000F7D128782E2817D115F8010F44F004046D
:104450002A280ED06FF02F022878A0F13001092908
:104460000AD808EB880102EB410100EB01086D1C42
:10447000F2E757F8048B6D1C287869283ED006DCDB
:104480000028CDD063280BD0642804D136E07328EF
:1044900010D075284BD052460D999047761C85E078
:1044A00017F8040B8DF8000000208DF80100E94694
:1044B000012003E057F8049B4FF0FF3061074FF0F5
:1044C000000401D40AE0641C44450DDA8442FADB9E
:1044D00019F804100029F6D106E0641C8442FCDBC4
:1044E00019F804100029F8D1264404E019F8010B4A
:1044F00052460D999047641EF8D257E001CF4FF015
:104500000A0B002802DA40422D2102E0210504D5E1
:104510002B218DF82410012103E0E10705D0202193
:10452000F7E70DF1200908910CE00021F9E701CF30
:104530004FF00A0BF9E75946FBF7F0FE01F13002A4
:1045400009F8012D0028F6D1ADEB090000F1200B90
:10455000600701D44FF00108D84502DDA8EB0B003D
:1045600000E000208046002406E009A85246005DD5
:104570000D999047641C761C08988442F5DB04E092
:10458000302052460D999047761CB8F10001A8F1F1
:104590000108F5DC05E019F8010B52460D9990472A
:1045A000761CBBF10001ABF1010BF4DC6D1C34E7B0
:1045B0000928010070B504460420FFF773F90C497F
:1045C0000C7025464FF47A70454301200949086074
:1045D0004FF0E020006940F002004FF0E021086158
:1045E00008464561006940F00100086170BD0000A7
:1045F00014010020180100202DE9F04704464FF077
:104600000008002600250027A94602F051FC0128D9
:1046100014D01B480068844206D319480068B4FBD4
:10462000F0FA504601F05EFD15480068B4FBF0F169
:1046300000FB1140041E01D1BDE8F0874FF0E020DF
:10464000D0F814900E48006804FB00F84FF0E0200A
:10465000866911E04FF0E0208569B5420CD0B54283
:1046600002D2701B074403E0A9EB05003044074465
:104670002E46474500D300E0ECE700BF00BFDBE774
:104680001801002000B500F075F80B4908700846C5
:10469000007830B90948007800F580700849088032
:1046A00009E005480078012805D10448007800F5A4
:1046B00080700349088000BDCE010020C9010020A0
:1046C000CA01002000BF054A128802F04002002AF9
:1046D000F9D0C2B2014B1B1D1A8070470014014073
:1046E000004870477C09002000487047B40900204A
:1046F000004870479809002000487047F6000020E5
:104700000146C1EBC100024A02EB80007047000085
:104710004409002030B5034613B94FF6FF7030BD91
:1047200009E013F8014B82EA0400C0B2054D35F8E8
:10473000100080EA2222081EA1F10101F1D11046E9
:10474000EDE700002A75000830B5034605E013F8D0
:10475000010B80EA02040448025D081EA1F1010574
:10476000A9B2F4D1104630BD297400080048704742
:104770002C09002005480078054908700348007896
:104780000A2801DD002070470120FCE7D3AD00209E
:10479000C90100202DE9F041044625462068286023
:1047A00020792871B5F80160B4F805003B4908800C
:1047B000E71D0846018840F20122881A91423FD045
:1047C00012DC40F20112A1EB0200914226D006DC7D
:1047D000012911D0022915D003295BD118E0012845
:1047E00022D0022856D125E0072853D2DFE800F076
:1047F000522E343A40464C00324639462848FBF7A0
:104800003DFD48E0324639462648FBF737FD42E099
:10481000324639462448FBF731FD3CE03246394602
:104820002248FBF72BFD36E0324639462048FBF79D
:1048300025FD30E0324639461E48FBF71FFD2AE0D1
:10484000324639461C48FBF719FD24E0324639460A
:104850001A48FBF713FD1EE0324639461848FBF7AD
:104860000DFD18E0324639461648FBF707FD12E009
:10487000324639461448FBF701FD0CE03246394612
:104880001248FBF7FBFC06E0324639461048FBF7BE
:10489000F5FC00E000BF00BFBDE8F081CC010020C6
:1048A000A8AD0020B4010020B3AD0020B501002068
:1048B000B9010020BD010020D3AD0020EEAD0020E5
:1048C000FEAD0020BF010020C0010020C10100207A
:1048D000C2010020FFF736F80348FEF729FE00F07A
:1048E0007DFE00BFFEE70000EC0100202DE9F04155
:1048F00005460E461C4807681C480068001D01F06C
:1049000023FA50B91948006890F82C10012088400B
:1049100017490968814316480160681C38B936B1E7
:1049200012480168091D134801F04CFA1AE07C197D
:104930000E4800684460BC4207D20C480168091D5B
:104940000D48006801F024FA0CE008480168091DD0
:104950000A48006801F01CFA09480068844201D244
:1049600007480460BDE8F0815401002040010020A8
:10497000580100206C0D0020480100204401002057
:104980007001002010B5044601F028FA24480068A0
:10499000401C234908602348006840B9214804604E
:1049A0000846006801280DD100F0F2F90AE01E481F
:1049B000006838B91B480068C06AE16A884201D8BB
:1049C0001848046019480068401C184908600846E7
:1049D0000068606494F82C1001208840144909682C
:1049E000084313490860E16A01EB8101114A02EBB7
:1049F0008100211D01F0E6F901F038FA0A4800684B
:104A000068B108480068C06AE16A884207D24FF07E
:104A1000805009490860BFF34F8FBFF36F8F10BDFF
:104A200050010020400100205C0100206C010020AA
:104A3000580100209C0A002004ED00E010B501F0B0
:104A4000CDF910480068D0B90F4801F091F90F482E
:104A500001F08EF90C480E4908600C480D490860B9
:104A600000221021052001F0ABFE0649086008462F
:104A7000006820B108A10348006801F0F7FA01F0CE
:104A8000F5F910BD84010020800D0020940D002058
:104A90007C01002080010020546D72510000000054
:104AA00070B523E001F028FD1348006808B9012023
:104AB00000E00020054602F093FBBDB901F08EF93D
:104AC0000D48C068C468201D01F03EF90B4800681D
:104AD000401E0A4908600A480068401E08490860EC
:104AE00001F0C4F9204600F060F800BF04480068F7
:104AF0000028D7D170BD0000580D002050010020C3
:104B00004C01002070B504460D46206C70B1216C3C
:104B1000E0680844E0606168E068884201D320688A
:104B2000E0602846226CE168FBF7A8FB70BD2DE928
:104B3000F04104460F4615464FF00008A66B206C66
:104B400040B9206860BB606802F07CFA80460020B3
:104B5000606025E07DB93946226CA068FBF78EFBCA
:104B6000216CA0680844A060D4E90110884217D3E2
:104B70002068A06014E03946226CE068FBF77EFBF9
:104B8000216CE068401AE0602168E068884203D246
:104B9000216C6068401AE060022D01D106B1761EDA
:104BA000701CA0634046BDE8F08110B50446206B40
:104BB00001F098F9204601F095F910BD0146084A28
:104BC000126812680AB9012200E000220A600A682D
:104BD00022B9034A1268D268106800E000207047CA
:104BE0007C01002030B54FF42043174800F0070443
:104BF0002CB1C01D20F00700134C041B1B1B0246E8
:104C0000124C22600024114D6C60D018083820F03E
:104C100007000F4C206000240D4D2D686C600C4D7A
:104C20002D682C601146441A4C60094C24680C60B5
:104C3000084D4C682C60084D4C682C604FF00044C7
:104C4000064D2C6030BD0000A80D00209C01002006
:104C5000A4010020AC010020A8010020B001002028
:104C600000BFFFF71DFF064800680128F9D94FF083
:104C7000805004490860BFF34F8FBFF36F8FF0E798
:104C80009C0A002004ED00E02DE9F04106460D46A7
:104C900017469846069C0DB9246000E02760E6633D
:104CA00025640121204601F0B1FE84F850800020E7
:104CB000A064BDE8F08100002DE9F05F82460F4658
:104CC00090469B460A9E0C9C4FEA8801A522206BC9
:104CD000FBF7E6FAA8F10100216B01EB800929F04E
:104CE000070909F0070008B9012000E0002028B9F1
:104CF00040F22B321BA122A0FFF756FB002507E054
:104D0000795D04F134004155785D00B902E06D1C15
:104D1000102DF5D300BF002143200155202E00D3D4
:104D20001F26E662E66400202065201D01F02DF8B4
:104D300004F1180001F029F82461C6F12000A061F7
:104D400064620020606584F858005A46514648461F
:104D500000F018FC20600B9808B10B980460BDE8C7
:104D6000F09F00002E2E5C53797374656D5C467263
:104D7000656552544F535C7461736B732E6300000E
:104D80004572726F723A25732C25640D0A0000007B
:104D900010B5002407E004EB84010F4A02EB810008
:104DA00000F0E6FF641C202CF5D30C4800F0E0FF77
:104DB0000B4800F0DDFF0B4800F0DAFF0A4800F076
:104DC000D7FF0A4800F0D4FF0448094908600448A6
:104DD0000849086010BD00009C0A00201C0D00203E
:104DE000300D0020440D0020580D00206C0D0020D7
:104DF000440100204801002010B50146164800E09B
:104E0000006803688B42FBD30246436813448B421D
:104E100004D143684C682344436001460A464B680A
:104E200013440468A34211D10C4C03682468A342C4
:104E300008D04B680468646823444B6003681B68AF
:104E40000B6005E0054B1B680B6001E003680B601D
:104E5000884200D0016010BD9C010020A401002008
:104E60002DE9F04104460D4616461F464FF0000856
:104E700065602461B5420CD8F01BA169884202D359
:104E80004FF0010811E0211D0948006800F080FF83
:104E90000BE0BE4204D2BD4202D34FF0010804E051
:104EA000211D0448006800F073FF4046BDE8F08112
:104EB000800100207C01002070B5054600F08EFFC7
:104EC000A86B08B9012400E0002400F0CFFF2046C1
:104ED00070BD70B5054600F081FFA86BE96B884294
:104EE00001D1012400E0002400F0C0FF204670BD85
:104EF0002DE9F3410D460098846C00272CB940F64B
:104F0000CE121AA120A0FFF74FFAA06BE16B8842E6
:104F100001D2012000E0002028B940F6CF1213A1F1
:104F200019A0FFF741FAA06BE16B88421BD294F9FC
:104F300045602A4669462046FFF7F9FD0746701C82
:104F400060B9606A08B9012000E0002050B904F19E
:104F5000240002F0E7F828B1012703E0701C40B2FA
:104F600084F8450000BF3846BDE8FC812E2E5C5316
:104F7000797374656D5C4672656552544F535C710C
:104F8000756575652E6300004572726F723A257300
:104F90002C25640D0A000000F8B505460F4613489D
:104FA0000068C068C468201D00F0CEFEE0690128DA
:104FB00018D1A06941192B463A462046FFF750FF09
:104FC00080B1002003462A4601460090204602F0A8
:104FD000D7F906462EB94FF4027205A10BA0FFF7D0
:104FE000E3F900BF2046616A8847F8BD7C010020D4
:104FF0002E2E5C53797374656D5C467265655254F0
:105000004F535C74696D6572732E63004572726FE5
:10501000723A25732C25640D0A000000F0B587B0A4
:1050200070E0039800280CDA04AE2EB940F2E722B3
:105030003AA141A0FFF7B8F9D6E90020B16890473E
:1050400000BF039800285DDB059C606908B901205A
:1050500000E0002010B9201D00F076FE02A800F04C
:10506000C9F8054603980A284AD2DFE800F0090586
:10507000072C2E4506082D2F00BF00BF00BF00BF24
:105080000498A269811803462A462046FFF7E8FEE5
:10509000C0B12046616A8847E069012812D100202A
:1050A00000900498A169421800231946204602F096
:1050B00067F907462FB940F2213218A11EA0FFF769
:1050C00073F900BF1DE000BF1BE000BF0498A061A2
:1050D000A06908B1012000E0002028B94FF44E7209
:1050E0000EA115A0FFF760F9A06941192B462A46C9
:1050F0002046FFF7B5FE04E0204600F0F3FE00E096
:1051000000BF00BF00231A4603A90F48006801F042
:1051100095FB002885D107B0F0BD00002E2E5C5312
:10512000797374656D5C4672656552544F535C7457
:10513000696D6572732E63004572726F723A2573E2
:105140002C25640D0A00000084010020F8B50546F6
:105150000C4601F0D1F9684600F04CF8064600987C
:1051600020BB44B9B54206D802F03AF83146284689
:10517000FFF712FF1CE03CB10E480068006808B958
:10518000012000E000200446A91B22460A480068CE
:1051900000F082FF02F024F850B94FF08050074928
:1051A0000860BFF34F8FBFF36F8F01E002F018F874
:1051B000F8BD0000800100208401002004ED00E023
:1051C0000A490968096809B9012100E0002121B1F3
:1051D0004FF0FF31064A116006E004490968C968CA
:1051E000C868034A4168116070470000440100200C
:1051F0007001002070B5044601F06AFE05460748BC
:105200000068854204D200F00BF80120206001E024
:105210000020206001480560284670BD8C010020F8
:105220002DE9F8432DE021480068C06805681F4853
:105230000068C068C468201D00F086FD2046616AD1
:105240008847E06901281CD1A0694619AE4207D9F8
:1052500066602461211D1548006800F099FD10E08A
:10526000002003462A4601460090204602F088F8B6
:1052700007462FB940F292320DA114A0FFF794F81F
:1052800000BF0A480068006808B9012000E000205B
:105290000028C8D00548D0F80080104800680349AD
:1052A00008600E48C0F80080BDE8F8837C0100204B
:1052B0002E2E5C53797374656D5C4672656552542D
:1052C0004F535C74696D6572732E63004572726F23
:1052D000723A25732C25640D0A000000800100201D
:1052E0000C480068401C08B9012000E0002028B9E3
:1052F00040F20F1208A115A0FFF756F800BF50208A
:1053000080F31188BFF34F8FBFF36F8F00BF00BFD3
:10531000FEE70000900100202E2E5C537973746527
:105320006D5C4672656552544F535C706F72746168
:10533000626C655C525644535C41524D5F434D3440
:10534000465C706F72742E63000000004572726FCD
:10535000723A25732C25640D0A00000008B500BFC1
:105360006846FFF72BFC044620460099FFF7EEFE47
:10537000FFF754FEF4E770B5044600F02FFD94F9F2
:1053800045501AE0A06C38B100212046FFF7B0FD6F
:1053900088B100F06FFF0EE0606A08B9012000E0FC
:1053A000002038B904F1240001F0BCFE18B100F06F
:1053B00061FF00E003E0681E45B2002DE2DC00BFA3
:1053C000FF2084F8450000F051FD00F007FD94F93E
:1053D000445010E0206908B9012000E0002048B9DD
:1053E00004F1100001F09EFE08B100F043FF681EBA
:1053F00045B200E001E0002DECDC00BFFF2084F8A6
:10540000440000F033FD70BD2DE9F04104464FF03B
:10541000000801F071F83E48006808B9FFF7E2FBA8
:105420003C480068204000285FD1A4B1083404F053
:10543000070080B104F00700C0F10800044404F044
:10544000070008B9012000E0002020B9BF2232A1E6
:105450003DA0FEF7A9FF002C47D03F4800688442DA
:1054600043D83E4E3046056801E02E462D686868F8
:10547000A04202D228680028F7D12548006885425A
:1054800033D0306800F10808286830606868001B75
:10549000102813D92F1907F0070008B9012000E0E0
:1054A000002020B9EC221CA127A0FEF77DFF686830
:1054B000001B78606C603846FFF79EFC26496868E0
:1054C0000968081A244908600846006824490968E0
:1054D000884203D220480068214908600D49686865
:1054E0000968084368600020286001F079FE08F030
:1054F000070008B9012000E0002028B94FF4967297
:1055000005A111A0FEF750FF4046BDE8F081000064
:10551000A4010020B00100202E2E5C537973746525
:105520006D5C4672656552544F535C706F72746166
:10553000626C655C4D656D4D616E675C6865617040
:105540005F342E63000000004572726F723A25735B
:105550002C25640D0A000000A80100209C010020F9
:10556000AC0100200648006830B10549096801F126
:105570005000096D491C0160014800687047000037
:1055800040010020001F4FF080730360001F21F0D6
:1055900001030360001F054B036014380260001F05
:1055A0006FF002030360203870470000E1520008EA
:1055B00010B5044600F012FC00F05CF800F074F83E
:1055C00000F08CF800F022F80348006800F0C8FDF5
:1055D00000F04CFC10BD00006C0000201CB506481B
:1055E000022100230A02CDE9001004A1064801F0BF
:1055F0002FFC00F027FF1CBD6C000020737461724B
:10560000745F7461736B0000B15500081CB50648E7
:10561000192100234FF48072CDE9001003A108483E
:1056200001F016FC1CBD0000E0000020436C616D21
:10563000705F595F505F525F7461736B00000000D0
:10564000511600081CB506481C2100234FF4807237
:10565000CDE9001003A1064801F0FAFB1CBD0000D3
:10566000740000204D6F64655F4368616E6765007C
:10567000F12400081CB50648122100234FF4807263
:10568000CDE9001003A1074801F0E2FB1CBD0000BA
:10569000700000204D6F746F725F436F6E74726F95
:1056A0006C000000352700081CB5064817210023B0
:1056B0004FF48072CDE9001003A1074801F0C8FB48
:1056C0001CBD00000000002046756E6374696F6E9B
:1056D0005F7461736B0000005D2100081CB5064813
:1056E000142100234FF40072CDE9001003A10748F4
:1056F00001F0AEFB1CBD0000DC000020757365727C
:105700005F55495F5461736B00000000115700083A
:105710009EB00F21FE48FAF7CAFD0F21FD48FAF7A7
:10572000C6FD0F21FC48FAF7C2FD0F21FB48FAF72E
:10573000BEFD0F21FA48FAF7BAFD0F21F948FAF732
:10574000B6FD0F21F848FAF7B2FD0F21F748FAF736
:10575000AEFD0F21F648FAF7AAFDF72040F22C41E2
:105760004FF45773CDE90230CDE90410052008212C
:1057700009230122CDE90010EEA1E948FCF76CFEF7
:1057800040F2151040F2312100224FF40373CDE9AD
:105790000232CDE904100320062109230122CDE9BC
:1057A0000010E5A1DF48FCF757FE40F2151040F26B
:1057B0005121002240F22F23CDE90232CDE904101D
:1057C0000320062109230122CDE90010DBA1D648E0
:1057D000FCF742FE40F2151040F2512140F2312315
:1057E000CDE90230CDE9041003200621092301226E
:1057F000CDE90010D2A1CD48FCF72EFE40F21510E5
:1058000040F27151002240F28A53CDE90232CDE9D3
:1058100004100320062109230122CDE90010C9A1AB
:10582000C348FCF719FE40F215104FF4AB6100229B
:1058300040F26A53CDE90232CDE90410032006217B
:1058400009230122CDE90010BFA1C048FCF704FEE6
:1058500040F215104FF4AB6140F27153CDE90230C4
:10586000CDE904100320062109230122CDE900100F
:10587000B7A1B848FCF7F0FD4FF42B70011F4FF4AF
:10588000B072CDE90212CDE90410042003210923EE
:105890000122CDE90010B0A1B048FCF7DDFD4FF4C6
:1058A0002B7040F2E9414FF4B072CDE90212CDE91C
:1058B00004100420032109230122CDE90010A8A12E
:1058C000A848FCF7C9FD4FF42B7040F2E941031FD3
:1058D000CDE90230CDE9041004200321092301227F
:1058E000CDE90010A0A1A148FCF7B6FD4FF4B070BF
:1058F0004FF42A7100224FF4DD73CDE90232CDE975
:1059000004100420032109230122CDE9001098A1ED
:105910009848FCF7A1FD4FF4B07040F2E941002235
:1059200040F2F953CDE90232CDE9041004200321FD
:1059300009230122CDE900108FA19048FCF78CFDCE
:105940004FF4B07040F2163100224FF41E73CDE9CF
:105950000232CDE904100420062109230122CDE9F9
:10596000001087A18748FCF777FD4FF4B07040F234
:105970007B41002240F25F53CDE90232CDE90410B1
:105980000420062109230122CDE900107EA17F48D1
:10599000FCF762FD40F26F2040F216314FF4846252
:1059A0000023CDE90232CDE90410042006210923A9
:1059B0000122CDE9001076A17648FCF74DFD40F2BA
:1059C0006F2040F27B414FF484624FF4F063CDE9E5
:1059D0000232CDE904100420062109230122CDE979
:1059E00000106DA16D48FCF737FD40F26F2040F2CA
:1059F0007B4140F21633CDE90230CDE9041004209A
:105A0000062109230122CDE9001065A14048FCF7D9
:105A100023FD40F26F2040F216314FF4B072CDE911
:105A20000212CDE904100420062109230122CDE948
:105A300000105CA15C48FCF70FFD40F26F2040F2C3
:105A40007B414FF4B072CDE90212CDE9041004207D
:105A5000062109230122CDE9001054A15448FCF786
:105A6000FBFC40F2DA3040F27E3140F211124FF48A
:105A70005873CDE90232CDE9041006200421092330
:105A80000122CDE900104BA14B48FCF7E5FC40F2A8
:105A9000DA3040F2044140F211124FF48563CDE94F
:105AA0000232CDE904100620042109230122CDE9A8
:105AB000001042A14248FCF7CFFC00BF0F221A4958
:105AC00015A8FAF7DBFB0F22164911A8FAF7D6FB47
:105AD0000F2213490DA8FAF7D1FB0F220F4909A88D
